{
  "_format": "hh-sol-artifact-1",
  "contractName": "CrowdFunding",
  "sourceName": "contracts/CrowdFunding.sol",
  "abi": [
    {
      "inputs": [
        {
          "internalType": "uint256",
          "name": "",
          "type": "uint256"
        }
      ],
      "name": "campaigns",
      "outputs": [
        {
          "internalType": "string",
          "name": "name",
          "type": "string"
        },
        {
          "internalType": "string",
          "name": "description",
          "type": "string"
        },
        {
          "internalType": "uint256",
          "name": "target",
          "type": "uint256"
        },
        {
          "internalType": "address",
          "name": "Owner",
          "type": "address"
        },
        {
          "internalType": "uint256",
          "name": "amountCollected",
          "type": "uint256"
        },
        {
          "internalType": "uint256",
          "name": "deadline",
          "type": "uint256"
        }
      ],
      "stateMutability": "view",
      "type": "function"
    },
    {
      "inputs": [
        {
          "internalType": "address",
          "name": "owner",
          "type": "address"
        },
        {
          "internalType": "string",
          "name": "_title",
          "type": "string"
        },
        {
          "internalType": "string",
          "name": "_desc",
          "type": "string"
        },
        {
          "internalType": "uint256",
          "name": "_target",
          "type": "uint256"
        },
        {
          "internalType": "uint256",
          "name": "_deadline",
          "type": "uint256"
        }
      ],
      "name": "createCampaign",
      "outputs": [
        {
          "internalType": "uint256",
          "name": "",
          "type": "uint256"
        }
      ],
      "stateMutability": "nonpayable",
      "type": "function"
    },
    {
      "inputs": [
        {
          "internalType": "uint256",
          "name": "id",
          "type": "uint256"
        }
      ],
      "name": "donateToCampaign",
      "outputs": [],
      "stateMutability": "payable",
      "type": "function"
    },
    {
      "inputs": [],
      "name": "getCampaign",
      "outputs": [
        {
          "components": [
            {
              "internalType": "string",
              "name": "name",
              "type": "string"
            },
            {
              "internalType": "string",
              "name": "description",
              "type": "string"
            },
            {
              "internalType": "uint256",
              "name": "target",
              "type": "uint256"
            },
            {
              "internalType": "address",
              "name": "Owner",
              "type": "address"
            },
            {
              "internalType": "uint256",
              "name": "amountCollected",
              "type": "uint256"
            },
            {
              "internalType": "uint256[]",
              "name": "donations",
              "type": "uint256[]"
            },
            {
              "internalType": "uint256",
              "name": "deadline",
              "type": "uint256"
            },
            {
              "internalType": "address[]",
              "name": "donators",
              "type": "address[]"
            }
          ],
          "internalType": "struct CrowdFunding.Campaign[]",
          "name": "",
          "type": "tuple[]"
        }
      ],
      "stateMutability": "view",
      "type": "function"
    },
    {
      "inputs": [
        {
          "internalType": "uint256",
          "name": "id",
          "type": "uint256"
        }
      ],
      "name": "getDonators",
      "outputs": [
        {
          "internalType": "address[]",
          "name": "",
          "type": "address[]"
        },
        {
          "internalType": "uint256[]",
          "name": "",
          "type": "uint256[]"
        }
      ],
      "stateMutability": "view",
      "type": "function"
    },
    {
      "inputs": [],
      "name": "noOfCampaigns",
      "outputs": [
        {
          "internalType": "uint256",
          "name": "",
          "type": "uint256"
        }
      ],
      "stateMutability": "view",
      "type": "function"
    }
  ],
  "bytecode": "0x6080604052600060015534801561001557600080fd5b506116a9806100256000396000f3fe6080604052600436106100555760003560e01c8063075843c31461005a5780630fa91fa914610097578063141961bc146100d557806317818e5914610117578063236b8e3a1461014257806342a4fda81461016d575b600080fd5b34801561006657600080fd5b50610081600480360381019061007c9190610b6a565b610189565b60405161008e9190610c2c565b60405180910390f35b3480156100a357600080fd5b506100be60048036038101906100b99190610c47565b610290565b6040516100cc929190610df0565b60405180910390f35b3480156100e157600080fd5b506100fc60048036038101906100f79190610c47565b6103a0565b60405161010e96959493929190610eb5565b60405180910390f35b34801561012357600080fd5b5061012c61050c565b6040516101399190610c2c565b60405180910390f35b34801561014e57600080fd5b50610157610512565b60405161016491906111d3565b60405180910390f35b61018760048036038101906101829190610c47565b610856565b005b600080600080600154815260200190815260200160002090504283116101e4576040517f08c379a00000000000000000000000000000000000000000000000000000000081526004016101db90611267565b60405180910390fd5b868160030160006101000a81548173ffffffffffffffffffffffffffffffffffffffff021916908373ffffffffffffffffffffffffffffffffffffffff160217905550858160000190816102389190611493565b508481600101908161024a9190611493565b50838160020181905550828160060181905550600180600082825461026f9190611594565b925050819055506001805461028491906115c8565b91505095945050505050565b6060806000808481526020019081526020016000206007016000808581526020019081526020016000206005018180548060200260200160405190810160405280929190818152602001828054801561033e57602002820191906000526020600020905b8160009054906101000a900473ffffffffffffffffffffffffffffffffffffffff1673ffffffffffffffffffffffffffffffffffffffff16815260200190600101908083116102f4575b505050505091508080548060200260200160405190810160405280929190818152602001828054801561039057602002820191906000526020600020905b81548152602001906001019080831161037c575b5050505050905091509150915091565b60006020528060005260406000206000915090508060000180546103c3906112b6565b80601f01602080910402602001604051908101604052809291908181526020018280546103ef906112b6565b801561043c5780601f106104115761010080835404028352916020019161043c565b820191906000526020600020905b81548152906001019060200180831161041f57829003601f168201915b505050505090806001018054610451906112b6565b80601f016020809104026020016040519081016040528092919081815260200182805461047d906112b6565b80156104ca5780601f1061049f576101008083540402835291602001916104ca565b820191906000526020600020905b8154815290600101906020018083116104ad57829003601f168201915b5050505050908060020154908060030160009054906101000a900473ffffffffffffffffffffffffffffffffffffffff16908060040154908060060154905086565b60015481565b6060600060015467ffffffffffffffff81111561053257610531610a09565b5b60405190808252806020026020018201604052801561056b57816020015b610558610921565b8152602001906001900390816105505790505b50905060005b60015481101561084e576000806000838152602001908152602001600020905080604051806101000160405290816000820180546105ae906112b6565b80601f01602080910402602001604051908101604052809291908181526020018280546105da906112b6565b80156106275780601f106105fc57610100808354040283529160200191610627565b820191906000526020600020905b81548152906001019060200180831161060a57829003601f168201915b50505050508152602001600182018054610640906112b6565b80601f016020809104026020016040519081016040528092919081815260200182805461066c906112b6565b80156106b95780601f1061068e576101008083540402835291602001916106b9565b820191906000526020600020905b81548152906001019060200180831161069c57829003601f168201915b50505050508152602001600282015481526020016003820160009054906101000a900473ffffffffffffffffffffffffffffffffffffffff1673ffffffffffffffffffffffffffffffffffffffff1673ffffffffffffffffffffffffffffffffffffffff168152602001600482015481526020016005820180548060200260200160405190810160405280929190818152602001828054801561077b57602002820191906000526020600020905b815481526020019060010190808311610767575b50505050508152602001600682015481526020016007820180548060200260200160405190810160405280929190818152602001828054801561081357602002820191906000526020600020905b8160009054906101000a900473ffffffffffffffffffffffffffffffffffffffff1673ffffffffffffffffffffffffffffffffffffffff16815260200190600101908083116107c9575b50505050508152505083838151811061082f5761082e6115fc565b5b60200260200101819052505080806108469061162b565b915050610571565b508091505090565b60003490506000806000848152602001908152602001600020905080600701339080600181540180825580915050600190039060005260206000200160009091909190916101000a81548173ffffffffffffffffffffffffffffffffffffffff021916908373ffffffffffffffffffffffffffffffffffffffff16021790555080600501829080600181540180825580915050600190039060005260206000200160009091909190915055818160040160008282546109159190611594565b92505081905550505050565b604051806101000160405280606081526020016060815260200160008152602001600073ffffffffffffffffffffffffffffffffffffffff168152602001600081526020016060815260200160008152602001606081525090565b6000604051905090565b600080fd5b600080fd5b600073ffffffffffffffffffffffffffffffffffffffff82169050919050565b60006109bb82610990565b9050919050565b6109cb816109b0565b81146109d657600080fd5b50565b6000813590506109e8816109c2565b92915050565b600080fd5b600080fd5b6000601f19601f8301169050919050565b7f4e487b7100000000000000000000000000000000000000000000000000000000600052604160045260246000fd5b610a41826109f8565b810181811067ffffffffffffffff82111715610a6057610a5f610a09565b5b80604052505050565b6000610a7361097c565b9050610a7f8282610a38565b919050565b600067ffffffffffffffff821115610a9f57610a9e610a09565b5b610aa8826109f8565b9050602081019050919050565b82818337600083830152505050565b6000610ad7610ad284610a84565b610a69565b905082815260208101848484011115610af357610af26109f3565b5b610afe848285610ab5565b509392505050565b600082601f830112610b1b57610b1a6109ee565b5b8135610b2b848260208601610ac4565b91505092915050565b6000819050919050565b610b4781610b34565b8114610b5257600080fd5b50565b600081359050610b6481610b3e565b92915050565b600080600080600060a08688031215610b8657610b85610986565b5b6000610b94888289016109d9565b955050602086013567ffffffffffffffff811115610bb557610bb461098b565b5b610bc188828901610b06565b945050604086013567ffffffffffffffff811115610be257610be161098b565b5b610bee88828901610b06565b9350506060610bff88828901610b55565b9250506080610c1088828901610b55565b9150509295509295909350565b610c2681610b34565b82525050565b6000602082019050610c416000830184610c1d565b92915050565b600060208284031215610c5d57610c5c610986565b5b6000610c6b84828501610b55565b91505092915050565b600081519050919050565b600082825260208201905092915050565b6000819050602082019050919050565b610ca9816109b0565b82525050565b6000610cbb8383610ca0565b60208301905092915050565b6000602082019050919050565b6000610cdf82610c74565b610ce98185610c7f565b9350610cf483610c90565b8060005b83811015610d25578151610d0c8882610caf565b9750610d1783610cc7565b925050600181019050610cf8565b5085935050505092915050565b600081519050919050565b600082825260208201905092915050565b6000819050602082019050919050565b610d6781610b34565b82525050565b6000610d798383610d5e565b60208301905092915050565b6000602082019050919050565b6000610d9d82610d32565b610da78185610d3d565b9350610db283610d4e565b8060005b83811015610de3578151610dca8882610d6d565b9750610dd583610d85565b925050600181019050610db6565b5085935050505092915050565b60006040820190508181036000830152610e0a8185610cd4565b90508181036020830152610e1e8184610d92565b90509392505050565b600081519050919050565b600082825260208201905092915050565b60005b83811015610e61578082015181840152602081019050610e46565b60008484015250505050565b6000610e7882610e27565b610e828185610e32565b9350610e92818560208601610e43565b610e9b816109f8565b840191505092915050565b610eaf816109b0565b82525050565b600060c0820190508181036000830152610ecf8189610e6d565b90508181036020830152610ee38188610e6d565b9050610ef26040830187610c1d565b610eff6060830186610ea6565b610f0c6080830185610c1d565b610f1960a0830184610c1d565b979650505050505050565b600081519050919050565b600082825260208201905092915050565b6000819050602082019050919050565b600082825260208201905092915050565b6000610f6c82610e27565b610f768185610f50565b9350610f86818560208601610e43565b610f8f816109f8565b840191505092915050565b600082825260208201905092915050565b6000610fb682610d32565b610fc08185610f9a565b9350610fcb83610d4e565b8060005b83811015610ffc578151610fe38882610d6d565b9750610fee83610d85565b925050600181019050610fcf565b5085935050505092915050565b600082825260208201905092915050565b600061102582610c74565b61102f8185611009565b935061103a83610c90565b8060005b8381101561106b5781516110528882610caf565b975061105d83610cc7565b92505060018101905061103e565b5085935050505092915050565b60006101008301600083015184820360008601526110968282610f61565b915050602083015184820360208601526110b08282610f61565b91505060408301516110c56040860182610d5e565b5060608301516110d86060860182610ca0565b5060808301516110eb6080860182610d5e565b5060a083015184820360a08601526111038282610fab565b91505060c083015161111860c0860182610d5e565b5060e083015184820360e0860152611130828261101a565b9150508091505092915050565b60006111498383611078565b905092915050565b6000602082019050919050565b600061116982610f24565b6111738185610f2f565b93508360208202850161118585610f40565b8060005b858110156111c157848403895281516111a2858261113d565b94506111ad83611151565b925060208a01995050600181019050611189565b50829750879550505050505092915050565b600060208201905081810360008301526111ed818461115e565b905092915050565b7f446561646c696e652074696d652073686f756c64206265206f6620667574757260008201527f6500000000000000000000000000000000000000000000000000000000000000602082015250565b6000611251602183610e32565b915061125c826111f5565b604082019050919050565b6000602082019050818103600083015261128081611244565b9050919050565b7f4e487b7100000000000000000000000000000000000000000000000000000000600052602260045260246000fd5b600060028204905060018216806112ce57607f821691505b6020821081036112e1576112e0611287565b5b50919050565b60008190508160005260206000209050919050565b60006020601f8301049050919050565b600082821b905092915050565b6000600883026113497fffffffffffffffffffffffffffffffffffffffffffffffffffffffffffffffff8261130c565b611353868361130c565b95508019841693508086168417925050509392505050565b6000819050919050565b600061139061138b61138684610b34565b61136b565b610b34565b9050919050565b6000819050919050565b6113aa83611375565b6113be6113b682611397565b848454611319565b825550505050565b600090565b6113d36113c6565b6113de8184846113a1565b505050565b5b81811015611402576113f76000826113cb565b6001810190506113e4565b5050565b601f82111561144757611418816112e7565b611421846112fc565b81016020851015611430578190505b61144461143c856112fc565b8301826113e3565b50505b505050565b600082821c905092915050565b600061146a6000198460080261144c565b1980831691505092915050565b60006114838383611459565b9150826002028217905092915050565b61149c82610e27565b67ffffffffffffffff8111156114b5576114b4610a09565b5b6114bf82546112b6565b6114ca828285611406565b600060209050601f8311600181146114fd57600084156114eb578287015190505b6114f58582611477565b86555061155d565b601f19841661150b866112e7565b60005b828110156115335784890151825560018201915060208501945060208101905061150e565b86831015611550578489015161154c601f891682611459565b8355505b6001600288020188555050505b505050505050565b7f4e487b7100000000000000000000000000000000000000000000000000000000600052601160045260246000fd5b600061159f82610b34565b91506115aa83610b34565b92508282019050808211156115c2576115c1611565565b5b92915050565b60006115d382610b34565b91506115de83610b34565b92508282039050818111156115f6576115f5611565565b5b92915050565b7f4e487b7100000000000000000000000000000000000000000000000000000000600052603260045260246000fd5b600061163682610b34565b91507fffffffffffffffffffffffffffffffffffffffffffffffffffffffffffffffff820361166857611667611565565b5b60018201905091905056fea2646970667358221220fa0b0d704ce5c3f4c6685d8f0d5ae86dca3e5af918d8fd11d0b1a46da3689fc264736f6c63430008120033",
  "linkReferences": {},
  "deployedLinkReferences": {}
}